:020000041000EA
:1000000000B5324B212058609868022188439860DF
:10001000D860186158612E4B002199600221596106
:100020000121F02299502B49196001219960352056
:1000300000F044F80222904214D00621196600F024
:1000400034F8196E01211966002018661A6600F04E
:100050002CF8196E196E196E052000F02FF8012189
:100060000842F9D1002199601B49196000215960AB
:100070001A491B48016001219960EB211966A021F2
:10008000196600F012F800219960164914480160C1
:100090000121996001BC002800D000471248134993
:1000A000086003C880F30888084703B5996A0420EC
:1000B0000142FBD001200142F8D103BD02B5186610
:1000C0001866FFF7F2FF186E186E02BD00000240BE
:1000D000000000180000070000035F00212200005C
:1000E000F4000018222000A00001001008ED00E03C
:1000F00000000000000000000000000074B24E7A12
:1001000000200420F7010010C3010010C5010010F9
:10011000C1010010C1010010C1010010C101001097
:10012000C1010010C1010010C1010010C701001081
:10013000C1010010C1010010C9010010CB01001065
:10014000CD010010CD010010CD010010CD01001037
:10015000CD010010CD010010CD010010CD01001027
:10016000CD010010CD010010CD010010CD01001017
:10017000CD010010CD010010CD010010CD01001007
:10018000CD010010CD010010CD010010CD010010F7
:10019000CD010010CD010010CD010010CD010010E7
:1001A000CD010010CD010010CD010010CD010010D7
:1001B000CD010010CD010010CD010010CD010010C7
:1001C00000BE00BE00BE00BE00BE00BE00F04BF888
:1001D000103800BEF2EB8871245504104455041009
:1001E0003402001090A31AE700202149086006C8D5
:1001F00081F3088810471F48006800282FD10DA4FC
:100200000ECC002902D000F012F8F9E71A491B4A77
:10021000002000E001C19142FCD1194988471949E9
:1002200088471949884700BEFDE701C901C29A42C3
:10023000FBD3704744550410C00000208C1F0020E1
:100240001074041000000420000004201074041036
:1002500000100420001004200000000070470B482C
:1002600003F0F0FC0047EFF30580C0B270470000D8
:1002700008ED00E0000000D0901F00209C4400200A
:10028000AD1A0010E1030010E91B001057560000E2
:1002900006005250ABB360530CBB03100600525023
:1002A000861C03021CBB0310060052505422A29D60
:1002B00024BB031005005250DE65F468107404106E
:1002C000F8B5C046054B0648033310B51B1A062B7C
:1002D00003D9044B002B00D0984710BD8C1F002081
:1002E0008C1F0020000000000648074910B5091ABD
:1002F0008910CB0F5918491003D0044B002B00D0A4
:10030000984710BD8C1F00208C1F002000000000AB
:1003100010B5074C2378002B09D1FFF7D3FF054B0D
:10032000002B02D0044800E000BF0123237010BD61
:10033000982000200000000058B70310094B10B5AA
:10034000002B03D00849094800E000BF08480368B3
:10035000002B02D1FFF7C8FF10BD064B002BF9D0D0
:100360009847F7E7000000009C20002058B70310D2
:100370008C1F0020000000000800704770B50500C9
:1003800082B00E1E21D0541A01940F2C0BD82B686A
:100390001800012C15D0002C0DD10021019A6A60A3
:1003A000995402B070BD002201A9280009F0BEFED8
:1003B000019B2860AB602200310004F0F9FB2B6840
:1003C000EBE732781A702B68E7E7002A02D003487F
:1003D00009F0DCF901920368DFE7C04658B7031063
:1003E000F0B5C64600B592B004F094FD192000F0B7
:1003F00095F98022D02392041B065A62324A03AD3B
:10040000111F280005AC0394FFF7B8FF00952F4B90
:100410002F4A304909A800F071F80398A04201D092
:1004200004F0D4FB822109A8C90500F079F82A4913
:1004300009A800F077F8294A2800911F0394FFF7D4
:100440009DFF09A8290000F06FF80398A04201D091
:1004500004F0BCFB224B234E234D984617E0272384
:10046000E15C280009F02EFC09F09EFBD02409A8CD
:10047000802700F05FF8FA202406BF04800067613F
:1004800000F0AEFDFA20A761800000F0A9FD2B224C
:100490003100280009F076FC2B680C3B1B68EB1838
:1004A000DC6F002C0ED0237F002BD8D120000EF063
:1004B00011FD23680A219B694345D2D0200098474B
:1004C0000100CEE709F052F988B703103333134027
:1004D0006666A6409A99F9400000204192B7031041
:1004E0007903001094B703107835002010B5024846
:1004F00007F01EFB10BDC0464838002070B5040050
:1005000025001435E56000252160256125750C3036
:100510006260A360049909F04BFE200070BDC046E4
:10052000016070474160704710B50C3009F040FE23
:1005300010BDC046F8B56E4C050024226D49200060
:1005400009F020FC23680C3B1B68E318DE6F002ECB
:1005500000D1CAE0337F002B00D183E02723F15C78
:10056000200009F0AFFB09F01FFB042262492000C4
:1005700009F008FC286804F08BFA02000B00200048
:1005800009F02AFD036807000C3B1B68C318DE6FE7
:10059000002E00D1A9E0337F002B00D170E027238B
:1005A000F15C380009F08EFB09F0FEFA0422534991
:1005B000200009F0E7FB686804F06AFA02000B000B
:1005C000200009F009FD036807000C3B1B68C318F5
:1005D000DE6F002E00D188E0337F002B5ED0272312
:1005E000F15C380009F06EFB09F0DEFA04224449A0
:1005F000200009F0C7FBA86804F04AFA02000B00CB
:10060000200009F0E9FC036807000C3B1B68C318D5
:10061000DE6F002E69D0337F002B4CD02723F15C96
:10062000380009F04FFB09F0BFFA062235492000D7
:1006300009F0A8FB2A69E968200009F0A3FB036818
:1006400005000C3B1B68C318DC6F002C4DD0237FCA
:10065000002B3DD02723E15C280009F033FB09F093
:10066000A3FAF8BD30000EF035FC3368264A9B69CA
:100670000A21934200D173E73000984701006FE7E9
:1006800030000EF027FC33681F4A9B690A21934211
:1006900000D186E730009847010082E730000EF075
:1006A00019FC3368184A9B690A21934299D030009B
:1006B0009847010095E730000EF00CFC3368124AB1
:1006C0009B690A219342ABD0300098470100A7E70D
:1006D00020000EF0FFFB23680B4A9B690A2193421E
:1006E000BAD0200098470100B6E709F03FF8C046AD
:1006F00078350020C0B70310E8B70310F0B7031037
:10070000F8B7031000B803107903001010B50248C1
:1007100007F00EFA10BDC0464C3800200123D0224D
:100720008340120693629361094A830094464022F3
:1007300063441968C0004A40C02111408022520120
:1007400013431960034B9C46052360444360704784
:1007500004C0014000400140F8B5EFF3108772B6C5
:100760000D4E3368002BFCD0BFF35F8F0725CB08FD
:10077000C01801230D40AB401D000478254007D16F
:1007800023430370BFF35F8F356087F31088F8BD94
:10079000100001F02BFAC0462C0100D0F8B5CE466F
:1007A00047468C4680B5EFF3108872B61D4D2C6815
:1007B000002CFCD0BFF35F8F9A4219D80721012586
:1007C00011408D40D4080419267835421FD00721E6
:1007D0008946063909E04D460F001540AF40D40860
:1007E000041926783D00374211D001329342F2D2EB
:1007F00001204042BFF35F8F00220A4B1A6088F34A
:100800001088002807DB0CBC90469946F8BD35439C
:1008100025701000EEE76346002BF4D0089801F035
:10082000E5F9C0462C0100D0024B18688007C00FC4
:100830007047C04600C006400021044B044ABFF385
:100840005F8F02C39342FAD17047C046000100D0C7
:10085000800100D0044A1078431CDBB2172B00D96A
:10086000102313707047C046C414002000B5054B18
:1008700083B00100009318221F230348FFF78EFF67
:1008800003B000BD08B80310DC3C002083680B48AF
:1008900010B5844661446244090112019A1859183E
:1008A00054684B6801209C4201D802D00020C0B29D
:1008B00010BD12680B689A42F9D8F7E7FFFFFF0FE7
:1008C0000A4B1968EFF3108072B60A68002AFCD050
:1008D000BFF35F8F1B68BFF35F8F00221A6080F346
:1008E000108840BF002000217047C046A041002072
:1008F000F8B54E464546DE465746E0B51F000CAB00
:100900001D780DAB1B7881469B4603681600984600
:10091000002D08D1987B002841D13CBC90469946D7
:10092000A246AB46F8BD28006C006419033C384B66
:1009300000229C464B469B6860449C4600010A9BF3
:10094000604483600B9B06604760C36043461B683E
:100950001B199A705A701A7043465B7B9A46002B9B
:100960003BD043462A00986851465B689847434607
:100970001A68002824D053465B005344033BD31825
:1009800014195246A2701A78002A00D062701D70A5
:100990005246434628005A73AA45BED11FE041463D
:1009A00044001B682418033C1B195A788A73002AD8
:1009B00000D1CA73002205009A705A701A70B6E707
:1009C00053465B005344033BD31814199D7022789F
:1009D000002A00D05A705346237043465D734B463D
:1009E0003200187D3B0000F0E3FC041E07D05B469C
:1009F000002B04D14B462900186800F02DFF0E9BF8
:100A0000002B02D01C70280087E7280085E7C0462D
:100A1000FFFFFF0F744B8200F0B5D4580023DE4671
:100A200057464E4645469B46E0B58DB00B9000F0CC
:100A300033FC6268EFF3108572B61368002BFCD0AC
:100A4000BFF35F8F23689C465B7B9946002B00D1E8
:100A500081E0A268654B90464B441B019844434695
:100A60001E685F6832003B00121A8B41002B00DCCD
:100A700084E03B0032000B9800F09AFC0023002237
:100A800008920993002300279A466368BFF35F8F9B
:100A90005A461A6085F310885346002B64D00A9B8F
:100AA000390018024B461843D047626806900791F8
:100AB000EFF3108872B6564645461368002BFCD0FB
:100AC000B246A846BFF35F8F0699079A002A25DA37
:100AD0002369002B28D0089D099E6D1A96412A0093
:100AE0003300089D099E9E4200D971E000D173E059
:100AF00059460491012103914946029151460197BB
:100B000000912000FFF7F4FE5B4623616368BFF3AA
:100B10005F8F5A461A6088F3108888E713001943DC
:100B200002D02369002B46D12368DA7B002A07D044
:100B300051008A1819688C4649466244033A51703C
:100B40004A46DA73E2684B469446013B63441A789E
:100B500001321A70D8E7002300220892099300237B
:100B600000279A46002090E7002800D05FE70DB0EC
:100B70003CBC90469946A246AB46F0BD002B02D144
:100B8000002A00D075E70021604600F0B9FD434619
:100B90001A685B680892099343469B689A464346E5
:100BA000DF68E3684B44013B1B780A931B02184340
:100BB0002061002069E700F06FFB069A079B12187E
:100BC0004B41994204D800D092E7904200D88FE779
:100BD00001225242D3178BE7954200D888E70122C1
:100BE0005242D31784E7C04688410020FFFFFF0F21
:100BF00010B5124C6368002B04D00A21104800F095
:100C000065FC10BD23000F4A1021206800F05AFD3A
:100C1000032000F035FB032000F038FC0A490320D4
:100C200000F080FBFFF716FE084B9C460323604450
:100C30002375074B80006060DC60DEE7C81400208D
:100C4000A04100208D080010150A0010400000345B
:100C50008841002000487047C8140020F0B557466E
:100C6000DE4645464E46E0B585B00092019310AB96
:100C70001B7807009B4600239A4698467A68EFF354
:100C8000108972B61368002BFCD0BFF35F8F3E68EB
:100C9000B47B002C00D173E065002D193368033D4F
:100CA0005B195A78B273002A00D1F27342469A70E7
:100CB0005A701A70BA68504B94460099019AE3181A
:100CC0001B01634419605A600E9A9A600F9ADA60A9
:100CD000424633685B199A705A701A70737B03939B
:100CE000002B00D176E0190073682200B0689C46A2
:100CF000E047326800285ED00398551984464300C7
:100D00006344033BD318A8701A78002A00D06FE020
:100D10001C70707384425ED0FB681B19013B18780D
:100D20007B68BFF35F8F42461A6089F31088534691
:100D3000002B08D10002204305B03CBC90469946E8
:100D4000A246AB46F0BD5B46002B53D00E9B0F99DD
:100D500000209847030004000D000B434AD00029EF
:100D600017DA0098019902000B00121BAB4199425F
:100D70001AD801D1904217D800920193DA467DE744
:100D80007B68BFF35F8F1C6089F3108801204042AD
:100D9000D2E700F081FA24184D4100940195A94250
:100DA00002D8EBD1A042E9D901235B42DC17DA4635
:100DB0000093019462E7039955198C464B006344F4
:100DC000033BD3189C702A78002A00D05A706B46D7
:100DD0001B7B2B707473387D009A019B00F0E8FA3E
:100DE0008246002898D02100386800F035FD93E74E
:100DF0006A708DE700209FE7FFFFFF0FF0B55746B1
:100E00004E464546DE460400E0B50D000626764215
:100E1000F71736196F4185B08F4255D852D000F080
:100E20003BFA32003B00121A8B41002B56DD674B18
:100E30009A465A68EFF3108B72B61368002BFCD0F9
:100E4000BFF35F8F53461B6899469B7B9846002BE8
:100E500049D153465B68BFF35F8F00221A608BF362
:100E600010884346002B11D0BC46B0460094019533
:100E700000266546564F574A7B6AAB4211D3B96A82
:100E8000414501D2AB420CD0009C019D20002900BD
:100E900000F038FA05B03CBC90469946A246AB46F5
:100EA000F0BD1168EFF3108072B60B68002BFCD018
:100EB000BFF35F8F1368BFF35F8F1E6080F31088EE
:100EC00020BFD9E78642AAD90026002700F0E4F91E
:100ED00032003B00121A8B41002BA8DC002BD5D12D
:100EE000002AA4D1D2E75B0043444A46033B9C4618
:100EF000494612680093624453788B73002B00D1EB
:100F0000CB73002351469370537013708968324A33
:100F10008C46424431491201624416605760916028
:100F2000D36000994A468C461268624493705370AD
:100F300013704B465B7B0393002B35D0190048465A
:100F40004B46424680685B689847002819D0039852
:100F5000009984464A46430063448C4669461268B9
:100F6000097B033BD318624491701978002900D0A3
:100F7000517042461A704B465873804500D068E75E
:100F800015E04B4603981A688446009BD11843002D
:100F90006344033BD31842469A700A78002A00D073
:100FA0005A706B461B7B0B704B4642465A73534636
:100FB0003200187D3B0000F0FBF9002800D148E723
:100FC00053464146186800F047FC42E7C814002029
:100FD00000400540A0410020FFFFFF0FC1080010A6
:100FE00070B5060000F058F9FA2204000D009200D6
:100FF00000233000002103F0FDFC001969418D42FF
:1010000005D901204042C117FFF7F8FE70BD8D429F
:10101000FAD18442F5D8F7E7F0B54E464546DE46AC
:101020005746E0B56A4C83B0814688466268EFF364
:10103000108A72B61368002BFCD0BFF35F8F26684E
:10104000B57B002D46D06F007F193368033F0195B3
:10105000DB195A78B273002A00D1F27300229A7019
:101060005A701A70A1685B4B8C464946EB181B01FD
:1010700063441960414659605749DA6099603368A2
:10108000DB199A705A701A70737B9B46002B00D143
:1010900089E02A001900B068736898473268002810
:1010A00000D173E05B465B005B44033BD318D71968
:1010B0005A46BA701A78002A00D07A701D705B46C2
:1010C00073735D4500D16FE00026E3685B19013B57
:1010D0001B7802E00023002601936268BFF35F8F54
:1010E000002111608AF31088002D44D0002E42D1D7
:1010F000019A1B02134320BF6168EFF3108772B699
:101100000A68002AFCD0BFF35F8F2068D9B2427B07
:101110008A4256D0FF221A405500AA4605689244DA
:10112000AC4655466544033DAD78002D29D0E568B1
:101130001B0AAC466244013A12789A4244D0636872
:10114000BFF35F8F00221A6087F31088234A536A27
:10115000984508D8926A01264A4504D24246D31AD5
:101160005E1EB341DEB2300003B03CBC90469946EF
:10117000A246AB46F0BD194A0026536A9845F2D8FC
:10118000E8E722699342DAD12561D8E75B465B0044
:101190005B44033BD318D7199D703A78002A00D0DE
:1011A0005A705B463B707573207D4A46434600F09B
:1011B000FFF8061E00D187E72900206800F04CFBED
:1011C00083E7FF221A40B2E700F046FBB7E7C046CC
:1011D000C8140020FFFFFF0FC108001000400540A9
:1011E000F8B5CE46474680B5EFF305833F2213405E
:1011F00018001038EFF3108C72B61B490A68002AE9
:10120000FCD0BFF35F8F01210F008740174D184AB4
:101210006F63147891462200C240904646460022F1
:1012200031420BD0696A134D884681004D59A8455B
:1012300012D3114BBC43CA584B461C70BFF35F8F8F
:101240000021094B19608CF31088002A00D09047C8
:101250000CBC90469946F8BD08499B00884643441B
:1012600019681960EAE7C046280100D0004005402F
:10127000D3410020AC410020CC3B0020D03F0540B2
:1012800010B50100024A0348FFF766FA10BDC046D8
:1012900030B80310D0410020044A516A00E0190020
:1012A000906A536A9942FAD17047C046004005409F
:1012B000134A30B5546A00E01C00956A536AA34291
:1012C000FAD12A002300801859418C4211D80ED03F
:1012D0000C000B4A536AA342FCD307D1084A02E030
:1012E000516A994202D1916A8142F9D330BD854257
:1012F000EED9012401204042C1176442E9E7C0460B
:1013000000400540064A536A9942FCD807D1044B75
:1013100002E05A6A914202D19A6A8242F9D3704736
:101320000040054070B504000D00EFF3108672B662
:101330001A4A1368002BFCD0BFF35F8F002D1BD01F
:10134000200000F0EFFD164988420AD0200000F08E
:10135000F1FD0121200000F0CBFD0123A340114A43
:101360001360114BA400E550BFF35F8F00220B4BBD
:101370001A6086F3108870BD0B4BA200D550012275
:10138000A2400A4920000B7893430B70044900F0F7
:10139000FBFD0021200000F0ABFDE5E7280100D0B7
:1013A000E111001038600540CC3B0020D341002003
:1013B000F0B5D6464F4646462F4CC0B5656A00E0AC
:1013C0000D00A66A616AA942FAD1AB4249D9EFF38E
:1013D000108972B6294C21680029FCD0BFF35F8FB9
:1013E0000126274986408C460978264D0F00374351
:1013F0008846F9B28A46614654460C701E49041D5F
:10140000A4004E636250840063510D6A002435428B
:101410001AD04D6A00E025008F6A4C6AAC42FAD1BE
:10142000AB4224D801D1BA4221D8D04521D0124BA9
:10143000154A1E625E631F2318401E3B83401360E3
:101440006346424601241A70BFF35F8F00220B4BA4
:101450001A6089F3108820001CBC90469946A24669
:10146000F0BDAB4201D1B242B1D80124F3E7002470
:10147000EAE70124E8E7C04600400540280100D023
:10148000D3410020AC41002080E200E010B5EFF332
:10149000108472B60A490B68002BFCD0BFF35F8F33
:1014A00001238340074A0848136202789A43027076
:1014B000BFF35F8F00230B6084F3108810BDC0461C
:1014C000280100D000400540D3410020024B9C463B
:1014D00061448900016070474000003410B5040089
:1014E000FFF7B8F901002000FFF7F0FFFF23237199
:1014F00000236371BFF35F8F10BDC04610B50400B9
:10150000FFF7A8F901002000FFF7E0FFFF23237198
:101510006371BFF35F8F10BD10B504000120FFF7AA
:10152000A5F9044B9C46604480002060BFF35F8FA8
:1015300010BDC04640000034F8B54E464546DE4674
:101540005746E0B54C0064180368033C1A190D00B7
:10155000517806008946002906D128003CBC9046F7
:101560009946A246AB46F8BD4F004F44033FD819F9
:1015700041788846002141705170002D12D0736867
:101580004A462900B06898473368002873D0DF19AD
:101590001A19BD701178002900D0797049462700CA
:1015A000117000E04D464246002AD6D05400444413
:1015B000033C1A1951788946002911D173684246B3
:1015C0002900B06898473368002849D01C19DF19F2
:1015D000A5703B78002B00D0637043463B70BCE79E
:1015E0004900494403398A46534459788B460021BF
:1015F0005970517073684A464146B06898473368DD
:10160000002843D152461C199A184B46A3701378F0
:10161000002B00D0637043465446C84613705B46A7
:10162000002BCBD059463000FFF786FF81460028BB
:10163000C4D002004146B0687368984732680028F9
:101640002FD04B465B004B44033B1119D318424645
:101650009A700A78002A00D05A704B460B70ADE79A
:101660001C19DF194346BB702378002B00D07B7018
:101670002570454671E749461C19DA19A1701178A1
:10168000002900D0617015704D468CE741461A194B
:10169000534499701178002900D059704B4613704B
:1016A000BDE74B465B004B44033BD11814194A4637
:1016B000A2700A78002A00D0627042461C000A70AC
:1016C000C8467BE710B583600023CCB24373013377
:1016D000047342608373C4730068012C07D901232B
:1016E000421C0133DBB2137003329C42F9D8FF2352
:1016F00019404B005918002340180338437010BD9F
:10170000F0B54E4657464546DE46E0B5477B036892
:101710007C00E419033C1A19167883B00500894649
:10172000002E1ED1002911D0C07B002869D04100B5
:101730000918591803394F70EF73002E06D0710045
:1017400089190339884600214344997000233800E1
:1017500053706E7303B03CBC90469946A246AB46AC
:10176000F0BD7100891903398846591848788246B6
:10177000002807D149460029E5D0E87B0028D6D1CA
:10178000EF73DCE742005244033A9446019263440B
:101790005A78934600225A704A706B68524631005C
:1017A000A86898472B68002832D0414601985A18FB
:1017B00019188E701078002825D1514611705A469C
:1017C000002A23D059462800FFF7B6FE824600289B
:1017D0001BD002006B683100A86898472B6800286E
:1017E00025D042469918524652005244033A9A185C
:1017F00096700878002800D0507052460A701A1966
:10180000B8E7EF73A2E74870D7E72B681A19B1E77A
:1018100041465046019A59189A1888701078002845
:1018200000D048701670019A56469046C7E7524657
:101830005100514403395A184046934652461818ED
:1018400082705A461278002A00D042705A46884662
:1018500016701A1956468DE7F0B54546DE465746CE
:101860004E46E0B50C0083B00500002200293DD0B3
:10187000477B0168BC426BD066003619033E88196D
:101880008378002B32D05A00D318033BCB181A7838
:10189000944202D143E0002A08D053009B18033B36
:1018A000CB185A789442F6D142785A70002383704C
:1018B000437003789846002B25D1EA7B002A1DD07F
:1018C00053009B18CB18033B5C704346EC73002B12
:1018D00000D171E05C0000234444033C09198B7083
:1018E0004370002F1ED1434601226B73100003B0DA
:1018F0003CBC90469946A246AB46F0BDB846EC7358
:1019000000234370EFE719002800FFF715FE296850
:10191000EA7B80466F7B8819002AD6D0D0E74278D0
:101920001A70C3E742463900A8686B6898472A686E
:10193000002824D07B00DB191419033BD318A770AF
:101940001A78002A00D062704246B8461A70CAE778
:101950007E00F619033E8B191878804600281BD1AB
:10196000E87B002804D0420012188A18033A547009
:10197000EC7300225A70434601326B73B6E77B006A
:10198000DB19033B1419D31842469A702278002AB7
:1019900000D05A702770A6E744004444E01E01902E
:1019A00008184478A246002C08D1EC7B002C76D194
:1019B000EF7300228270DCE7B846A1E7630053446E
:1019C000033B994649444B784A7042709B4622003B
:1019D0006B684146A86898472B6800284BD0494659
:1019E0004046019C59181A1988701078002850D167
:1019F0005146A14611705A46002A20D05946280067
:101A0000FFF79AFD041E19D002004146A8686B68D2
:101A1000984700281ED04A4641462B689818620015
:101A20001219033A9A1891700178002900D0517068
:101A30000470E97B002905D19B19B9E72B684A4658
:101A40009818F6E74A0052189A18033A57709B19EB
:101A5000EF73AEE74B462968600000190338CB18D6
:101A600008189C700278002A00D05A704346A0469D
:101A700003708B1999E74A469818019A9C185246A8
:101A8000A2700278002A00D062704246D0460270EE
:101A9000B1E7487051461170019A9146ABE70322B5
:101AA00062438A18033A577082E7C046314A324B84
:101AB00070B51A60314A324B32491A6010008B6897
:101AC0009843FBD1304E314B9E420AD2F54300245D
:101AD000ED18AD080135A300F35801349847AC4226
:101AE000F9D100F0A1F82A4A254B1A60254A9368DB
:101AF000DB018033FBD14022264B274C9A675A6783
:101B00001A67DA66254B9C420ED2E6430025F6188A
:101B1000F608013663792000002B23D00135FFF74A
:101B2000EDFC0834AE42F5D11D4D1E4CC022A1681B
:101B3000280003F03DF8A560FEF77EFE00F05CFB98
:101B4000FFF756F8184E194B9E420AD2F54300246F
:101B5000ED18AD080135A300F35801349847A542AC
:101B6000F9D170BD0135FFF7B9FC0834B542D1D1C8
:101B7000DAE7C046BFCDFBFE00E00040FE7F3C0040
:101B800000F0004000C00040541F0020641F0020EF
:101B9000FFFFFF0100F001404C1F0020541F0020F8
:101BA0000000002000ED00E0641F00208C1F0020DA
:101BB00000BEFDE7094A1368002B06D00849181833
:101BC000884208D8106018007047064B044918185E
:101BD00013608842F6D901204042F5E7783D0020A5
:101BE000000004209C44002000BEFDE70FB400B5B7
:101BF000084883B003F054F8049B002B07D005A9D4
:101C00001800019101F0FEFF034803F049F800BEFF
:101C1000FDE7C04660B8031070B8031010B5014866
:101C2000FFF7E4FF54B8031030B50C2083B000F088
:101C30004BFBFEF7F9FD00280ED0964B964A1A6032
:101C40005A609A60DA601A615A619A61DA611A62BE
:101C5000924A5A6203B030BD914CA06700F084FBF9
:101C60000122904B1A60636C012BFCD103228E4B36
:101C70001A608B4A936B012BFCD1022405338B4AEB
:101C800001218B48009400F0D3FA0523894A00947F
:101C90000121894800F0CCFA884B5A68FF2A02D803
:101CA000802252005A6080227A4C7F4B21691201B7
:101CB000824D1A60002900D0E5E0E0217F4B022030
:101CC0001A681140802252012A4311601968484065
:101CD00003210140116004219A681142FCD0802246
:101CE000802192012A4309011160802252005A602A
:101CF000734B2361734B5968FF2900D8C1E003225D
:101D0000684B70481A60012103009A681142FCD0A8
:101D1000E0251A68154080225201024315601B68B5
:101D20004B400321194011600221664A9368194211
:101D3000FCD0802380219B0103430901196080218D
:101D4000614B490051606361604B5A68FF2A00D8BB
:101D5000596080225E4BE16912015C4D1A600029D6
:101D600005D0606901F0C8FF01300138FDD1E022E3
:101D700056490B681A4080235B012B431A6080236D
:101D800080229B012B4312011A608022424B520099
:101D90004A60E3614F4B5968FF2900D85A6080229E
:101DA0004D4B216A12014B4D1A60002905D0606924
:101DB00001F0A2FF01300138FDD1E02245490B6856
:101DC0001A4080235B012B431A60802380229B01F1
:101DD0002B4312011A6080235B004B602E4B3F4A5D
:101DE00023623F4B5968914201D801325A608022E8
:101DF0003C4B616A12013A4D1A60002905D06069B6
:101E000001F07AFF01300138FDD1E02234490B683E
:101E10001A4080235B012B431A60802380229B01A0
:101E20002B4312011A608023DB024B601B4B636261
:101E30002D4B5A68FF2A02D8802252005A60802215
:101E40002A4BA1691201284D1A60002905D060694A
:101E500001F052FF01300138FDD1E02222490B6828
:101E60001A4080235B012B431A60802380229B0150
:101E70002B4312011A6080235B004B60124BA3615D
:101E8000E8E65A603BE7606901F036FF013001384F
:101E9000FDD112E7E03C0020006CDC021BB7000023
:101EA000008000403CB0004030B00040002F685936
:101EB0000080024000389C1C00C00240308000407E
:101EC000001BB7003C80004040597307548000401D
:101ED00054B000406080004060B00040FFFF03004D
:101EE0006C8000406CB000404880004048B000402A
:101EF00001238340002902D1034A13607047034A3B
:101F00001360034A1360F9E780E100E080E200E03B
:101F100000E100E001238340014A13607047C0469E
:101F200000E200E0024B10309B688000C058704710
:101F300000ED00E070B50D00EFF3108672B60F4AA9
:101F40001368002BFCD0BFF35F8F0D4B10309B68E4
:101F500084001B590B4A934203D09D4201D0FFF7E6
:101F60005DFE074B9B681D51BFF35F8FBFF35F8F13
:101F70000022024B1A6086F3108870BD240100D045
:101F800000ED00E0CD010010F0B54546DE465746B5
:101F90004E46E0B50D0083B0EFF3108B72B65C4A8D
:101FA0001368002BFCD0BFF35F8F10229046804453
:101FB0004246584B97009B68DE59574B99469E42C4
:101FC00006D0AE4200D17DE0544C331B2F2B12D9EA
:101FD000504B9B68DE51BFF35F8FBFF35F8F0022D2
:101FE0004B4B1A608BF3108803B03CBC904699466B
:101FF000A246AB46F0BD012383409A465246484B69
:102000001B681A4000925246464B1A60BFF35F8F1E
:10201000FEF729F90190002849D1012332009A43A3
:1020200013001B1B5B4146495943090D93689D42B0
:102030004DD006201056002805DA31E0062018564B
:102040001A0000282CDB43001B189B00E31898683B
:102050008542F3D10620185600283BDB42001118B8
:10206000890065188846A9689960E979D9710621BF
:1020700069569971A9797F2926D8AD88E11A6D052D
:102080002D1545444919E0250905490D2D0229431F
:1020900099801218244B9200A4181A781870A27113
:1020A000009B002B08D152461E4B1A6090E78045DA
:1020B000B3D0FFF7B3FDB0E752461C4B1A60184B84
:1020C0001A6085E71E0083E7BD210902E0E71300DF
:1020D0000022BFE7019800280AD1002A15D0FF305E
:1020E000907113489080104A107811709871D7E75A
:1020F000104A1149D21A083A5002400D0143998002
:102100000E4952080A43DA80CAE74E46EBE7C0465A
:10211000240100D000ED00E0CD010010F0140020FB
:1021200000E100E080E100E0D141002080E200E039
:1021300000BDFFFF2A15002000F0FFFF00F8FFFFA1
:10214000AAAA0000F8B5012504000543FEF78BF8A4
:10215000EFF3108672B6214A1368002BFCD0BFF350
:102160005F8F1F4A2100891A4941224B4B431B0DA7
:102170001C4980008F685BB23F58BD4226D00621C3
:102180005156994226D012215156994224D01E21EF
:102190005156994210D02A215156032099420CD011
:1021A000114A11781370A171BFF35F8F00220B4B9E
:1021B0001A6086F31088F8BD0220410009188900D2
:1021C0005218FF21917109499180E9E78A6808490D
:1021D0001150E5E70020F0E70120EEE7240100D0F0
:1021E000F014002000ED00E0D141002000BDFFFF11
:1021F000CD010010AAAA0000F0B500220324FF2799
:10220000802620003D00094B11009C461040C00074
:102210008540A14361440B680132AB4335008540E2
:102220002B430B60202AECD1F0BDC04600E400E057
:10223000F8B504000C2017001D000E0001F05CFD35
:102240001C494143380001F057FD069A2B04120344
:1022500013432268002A1CDB174A8021944226D0AF
:102260004901164A164D1160164A11600F00AA68FE
:102270009743FBD1C021221D8901114321222660F1
:10228000A0600A602268002AFCDAE36008230B6081
:10229000F8BD3F2221680A409642DDD1A2681205AE
:1022A000120D9042D8D1E268002BD5D1F0E7890118
:1022B000D7E7C04640420F0000C0024000E00040A7
:1022C00000C0004000F0004080239B001843014BF9
:1022D000D86270470080054010B58024184BE40593
:1022E0001C60002825D00123164C1843164BDC61D6
:1022F000164C44401C62596298628021104BC905FB
:102300001960134813490860E021C9041960002AC4
:1023100012D0FA23DB005A430F4B9A420DD90F4AD1
:1023200013601A00084B5A6080220D4BD2051A60C8
:1023300010BD054BD861E0E70A4A084B1A60F1E787
:1023400000B00540D3C007B0008005402D3FF84FD6
:10235000FCFF010008200140FFFFFF00804100203A
:1023600000A00540A0860100AA23064A1B011360B5
:102370002F230549D360054B19605368002BFCDA05
:102380007047C0460040024000B0FA0000600240C2
:102390009A4200D2885470477047C04610B5002852
:1023A00000D110BD0B4B1C68A2689368013B936081
:1023B000002B04DB1368591C11601870F1E7916958
:1023C0008B4201DB0A28F5D10100200031F05AFAD6
:1023D000E7E7C04638160020F0B54546DE465746CA
:1023E0004E46E0B583B099460EAB1D78119B8846EA
:1023F0009B460223129900920B4007000D9C109AF5
:102400000193002B28D15B46002B00D092E0944230
:1024100022D201260E401F2C1ED80C9B30201B19E7
:1024200002E00133202C03D001341870A242F8D806
:10243000002E11D0A3450FD90C9B30201B195E46EE
:102440001F2C04D987E00133202C00D1A7E00134F0
:102450001870B442F7D1A346CB0611D54B0502D470
:10246000002C00D07CE00F9B102B00D1A0E0022BB1
:1024700000D1A7E01F2C11D830230C9A135501343A
:102480001F2C0BD8002D00D079E04B0700D588E039
:102490000B0733D520230C9A135501348B0730D00A
:1024A000009E2500A24632004446B0460C9B013DEA
:1024B000561C585D21004B46B8473200002DF5D11F
:1024C0004646A04654463619019B002B0ED0009D6F
:1024D000731B5B450AD23200444601364B4621004D
:1024E0002020B8473200731B5B45F6D3300003B0A1
:1024F0003CBC90469946A246AB46F0BD009E8B0779
:1025000015D15C456ED2009A0D9413005B441D1BDF
:102510000D9B44469846561C4B4621002020B84748
:102520003200B542F7D14346A0461C000D93002C63
:10253000B7D1C9E701260E4028D0002D2AD10C239F
:102540000B4227D1944200D374E71F2C00D864E7D4
:10255000A34500D880E7CB06A0D54B0500D582E780
:10256000A24202D05C4500D07DE7631E002B3BD029
:102570000F9A023C102A1BD01C00130077E72D2372
:102580000C9A135501348B07BBD089E7944200D2D3
:1025900041E761E701235B429C46E344D2E7B3464F
:1025A000D9E72B230C9A135501348B07A9D077E771
:1025B0008B060FD41F2C00D970E778230C9A135583
:1025C000013457E71F2C00D968E70C9A6033135584
:1025D00001344FE71F2C00D960E758230C9A13559C
:1025E000013447E7009EA2E700243CE7F0B5DE4651
:1025F00057464E464546E0B597B005000E00934657
:102600001F00209A219B1000190001F04CFE0028A9
:1026100000D0D5E2209821990122BD4B524201F011
:1026200027FE002800D081E1209821990122B94B92
:10263000524201F033FE002800D017E12098219982
:102640000022B54B01F02AFE002800D0BCE1209802
:1026500021990022B14B01F00BFE002800D0B3E11C
:10266000209821990022002301F002FE002800D0CA
:1026700054E200230D938023249ADB001A409146F4
:1026800000D007E20023A64C0893099406240EAB61
:1026900007932098219901F031FE80460C9001F0BB
:1026A00015FE02000B002098219901F066FD089AA2
:1026B000099B01F092FD0A900B9101F043FE8246C6
:1026C00001F000FE02000B000A980B9901F055FD85
:1026D0000022944B0A900B9101F0E0FD002800D1FC
:1026E000C5E101239C46E244504601F0EBFD089A07
:1026F000099B01F0CBFD002800D030E2002C00D077
:1027000074E10C9C200001F0E1FD02000B00209818
:10271000219901F032FD0022824B0890099101F0CD
:10272000A7FD002800D10AE24B46202B00D196E1FC
:102730005C1C0C9B0A211800984601F0B5FA4A4629
:10274000079B3031995440460A2101F0ADFA079BAE
:1027500080469946A14400281BD02A00330025005A
:102760004E46444699469046202D00D125E2200051
:102770000A2101F099FA3031317020000A2101F06C
:1027800093FA0135040001360028EDD12C004E46A5
:1027900045460323249A1340012B00D19BE12022BC
:1027A0009246202C0CD00D9A002A00D0C1E1249A28
:1027B000520700D44CE2621C92462B2207990A551C
:1027C0005A460892002B17D1239B9A4500D34FE21B
:1027D0005B441C005346E41AB84637002E0025001F
:1027E000541C434639002020B0472200AC42F7D1A8
:1027F00035003E004746089453465C1E079B08AAD6
:102800009C461723644494466344B946984637006F
:102810002E00089A551C20784B463900013CB047E1
:102820002A00A045F6D1089B350053441C00249B88
:102830003E009B0712D55B46239AE31A9A420DD9B4
:102840001300C84622005F469946013443463100D2
:102850002020A8472200E31B9945F6D8200017B096
:102860003CBC90469946A246AB46F0BD249B5B0714
:1028700000D5A4E02C4B9A4603230793249BD8460B
:102880009B0719D1079B23998B4200D3ECE15A4651
:102890009B1A9846239B99463B0031002020541CEC
:1028A000A84743461B1922009945F5D8239B5B4452
:1028B0001C00079BE31A9846B14642465646BA4664
:1028C0002F00079C013C551C305D53464946B847D4
:1028D0002A00002CF6D1079B3D0043441C00249B9A
:1028E0004E469B07BAD55B46239AE31A9A42B5D95E
:1028F0001300D04622005F4699460134434631001A
:102900002020A8472200E31B9945F6D8A6E7C04639
:10291000FFFFEFFFFFFFEF7F65CDCD4165CDCDC15F
:1029200080842E410000E03F5CBA0310249BD8460F
:102930009B0716D1239B042B00D897E11C1F5C44F6
:10294000B8465A4637002E002500541C434639002D
:102950002020B0472200AC42F7D135003E00474668
:10296000A046CE4BB9464246370004249A462E0074
:102970005346013C551C185D39004B46B0472A00B0
:10298000002CF5D14446249B350004343E009B07BF
:1029900000D463E75B46239AE31A9A4200D85DE7C6
:1029A0001300C84622005F46994601344346310071
:1029B0002020A8472200E31B9945F6D84EE7B84BE4
:1029C0009A460423079359E7249B5A460493239B72
:1029D00031000393229B28000293209B219C0093AB
:1029E00001943B0000F064F9040037E74B46202BCC
:1029F00035D0631E98464B460A2150465C1C01F0B8
:102A00007BF94A46079B3031995450460A2101F020
:102A100073F98146002800D1B6E0079B9A463B0037
:102A2000A2444746A84625004C46B14656469A461B
:102A300010E020000A2101F05FF9303131702000F0
:102A40000A2101F059F9013F01350400013600283F
:102A500000D194E0202DECD145464E465746032345
:102A6000249A1340012B35D020229246A8E600225A
:102A70000A980B998B4B01F0FBFB002800D03DE638
:102A80005346002B02D0DB0700D437E601239C46D7
:102A9000E24433E6229B092B00D8F2E001223023E6
:102AA00091460EA80370229B07905C1E2F32093BB3
:102AB000494604E042540131013C202901D08B42B7
:102AC000F8D1794BE2009B181A685B688946089236
:102AD0000993DEE52024239B002B47D00D9B002B80
:102AE00003D1249A0C33134202D0239B013B23933E
:102AF000239BA3423AD9202C00D1BDE030222100F3
:102B00001800079B1B1901311A7088422DD0013320
:102B10002029F8D15B468A4608936DE6209A219BCE
:102B20000020002101F029FB0123209021910D9329
:102B3000A1E5621C92462D2207990A5540E6002223
:102B400008980999574B01F0A9FB002800D0EBE544
:102B50000123A44623409C4463460C93E4E543468A
:102B600001330C9300239A46C8E5239C0123202CB3
:102B700000D018E61F339A465B4608933CE62C00CB
:102B80004E464546B8465746202C00D167E7424698
:102B90004046079B11191B193022002807D0013429
:102BA0001A70202C00D15AE701338C42F7D1631CF4
:102BB00099462E23079A1355B6E545464E464EE7ED
:102BC000249BD8469B0715D1239B032B52D9DC1E8F
:102BD0005C44B8465A4637002E002500541C434634
:102BE00039002020B0472200AC42F7D135003E002A
:102BF0004746A0462D4BB9464246370003249A4625
:102C00002E005346013C551C185D39004B46B04719
:102C10002A00002CF5D14446249B350003343E00A5
:102C20009B0700D41AE65B46239AE31A934200D32B
:102C300014E61300C84622005F4699460134434615
:102C400031002020A8472200E31B9945F6D805E66D
:102C5000249AA246120700D4B2E5012294460799AD
:102C60001F32E2440A55ABE5D84625E6D84678E659
:102C70000892C1E5D846BDE720239A465B460893F3
:102C8000BAE5DA00084B9B185C681B680893099446
:102C9000002399460EAB229C0793FAE464BA031012
:102CA00054BA03100000E03F70BA031060BA03107A
:102CB000F0B54E464546DE465746E0B59BB00A9312
:102CC000249B81461C000B93259B09911D000D92AE
:102CD0000C93002200232000290001F0C9FA0028EB
:102CE00000D093E10B9A0C9B92469B468023289A36
:102CF000DB001A400E9201D10623269356465B460E
:102D0000334300D148E15B465800C94B400D9C4617
:102D1000604401F0DBFAC74AC74B01F05EFAC74ACC
:102D2000C74B01F033FA5B46C64A1B031B0B1A4321
:102D300004000D00C44B11005046002201F01DFAA2
:102D4000C24AC34B01F049FA02000B0020002900DF
:102D500001F01CFA01F0D2FA804601F0B7FABD4A40
:102D6000BD4B04000D0001F038FA0022BB4B01F00E
:102D70000DFA01F0C3FABA4A0600BA4B2000290046
:102D800001F02BFA040030000D000F9601F09EFABE
:102D9000B54AB64B01F021FA02000B0020002900D1
:102DA00001F0EBF902000B0006000F0001F015FA2C
:102DB000320004000D003B003000390001F0E6F95C
:102DC000002210901191AA4B2000290001F0E7F990
:102DD0000022A84B01F0DAF902000B0020002900C4
:102DE00001F0DDF90022A44B01F0D0F902000B0044
:102DF0002000290001F0D3F90D00802132000400E9
:102E00003B000020C90501F0B8F902000B002000CA
:102E1000290001F0BBF902000B001098119901F094
:102E2000BEF90022874B01F0B1F9944A0F9B9446FA
:102E3000634400221B0501F0D0F906000D000200DA
:102E40000B005046594601F013FA00280BD001231D
:102E50005B429C46300029000022864BE04401F092
:102E60009EF906000D004346C62763339F42BF41CB
:102E7000289B7F4204371B0500D5ACE0279B00242C
:102E80009F4200D2DC1B0223289A1A400E9203D0E4
:102E90007B427B415B421C404346002B07D050469F
:102EA000594632002B0001F07AF982468B46002207
:102EB00000230B980C9901F0DBF9002800D0A0E06A
:102EC000289A6F4B039413400493269B5246029317
:102ED0005B4609990092019348460A9B0D9AFFF7B9
:102EE00085FB0400002F4FD0289B65209B066CD4E7
:102EF000631C22009A4609990A9BC8474346DA1781
:102F00009D18DB0F98467B1E55409B46002412AF50
:102F100002E03400202E0DD028000A2100F0ECFE43
:102F2000661C30313C19217028000A2100F0E4FEB3
:102F3000051EEED1052306935B46059300230493FB
:102F40000A33039343460196099E02930A9B009716
:102F50005246310048469846FFF73EFA0E9B040061
:102F6000002B11D00D9F279AC31B9A420CD9279B87
:102F70004D46020099460134434631002020A847BF
:102F80002200E31B9945F6D820001BB03CBC9046BC
:102F90009946A246AB46F0BD289B56465D461B05AA
:102FA00015D500239846269A0023424503DD1300D9
:102FB00042469B1A013B26938023289ADB001A4342
:102FC000002328920027984658E7203890E70023EE
:102FD0000427984652E72B003343E4D0294A2A4B72
:102FE0005046594601F052F9002817D1269B002B74
:102FF00000D143E70E9B5A1E9341269AD31A26937B
:103000003CE78021090659448B4659E78022120685
:1030100094460C9BA24663449B4667E600221B4BEA
:103020005046594601F024F90028BCD1DEE7C046DD
:1030300001FCFFFFFB799F501344D33FB3C8608B63
:10304000288AC63F0000F03F0000F83F61436F63ED
:10305000A787D23F71A379094F930A400000E03F50
:103060001655B5BBB16B0240EF39FAFE422EE63F72
:1030700000002C400000244000001840FF03000026
:10308000FFF7FFFF2D431CEBE2361A3F80842E41F1
:10309000F0B54546DE4657464E46E0B5A1B01D00A8
:1030A0002A9B09920B93A24AA24B0A9008911A609C
:1030B000002900D187E300239B469F4B2C009A46B2
:1030C0005D46207800280CD025281DD06E1C2A00D3
:1030D000099B0A9D08990134A847207835000028EB
:1030E000F2D10999AB462A008D4200D34A1E099BB2
:1030F000089900200A9CA047584621B03CBC904645
:103100009946A246AB46F0BD1023621C9846083B88
:103110009C461678043B9946023B9B463300203B75
:10312000DBB2002701211400102B0CD850469B0065
:10313000C3589F460F430132167814003300203BDA
:10314000DBB2102BF2D93300303B092B00D8B5E1AC
:10315000002398462A2E00D1A6E200239B462E2E5D
:1031600000D1C0E13300683BDBB2122B18D8734AA0
:103170009B00D3589F46634601321F43DCE743461A
:1031800001321F43D8E74B4601321F43D4E75B4669
:1031900001321F43D0E780235B0066781F43013470
:1031A0003300253BDBB2532B0FD8654A9B00D35825
:1031B0009F466678682E00D188E280231F43330043
:1031C000253BDBB20134532BEFD96F1C2A00099B3E
:1031D0000A9D08993000A84701343D0071E76678E0
:1031E0006C2E00D16CE280235B001F430134D7E7D3
:1031F00080239B0066781F430134D1E70B9B1A1D87
:103200001B680E920B935B46002B00D12BE20B9AAE
:1032100010781600002804D100F0A4FC013B002B1C
:1032200003D001363278002AF8D10B9BF31A0C93A5
:103230008023DB003B40994603D00C9B5B4500D9C3
:10324000ABE202233B400F9300D1B3E100281ED034
:103250004B46002B00D1D0E15B465F190B9BA34688
:103260005E1BB1462A00099C0A9E09E023000899CA
:10327000551CB0474B46585D002800D1CEE12A00CE
:103280009742F3D15C463D000F9B002B14D00C9A63
:10329000904511D943465819099B861A98462A0029
:1032A000A1460A9F089C0135434621002020B847CB
:1032B0002A00B542F7D14C460E9B01340B9300E730
:1032C0000B9B1A1D1B689046002B00D1CEE12122DA
:1032D00017430B970F21002218AE8946A44602E03F
:1032E0000A0020290CD048461840C4B22700511CBF
:1032F0003737092801D830342700B7541B09EFD1DC
:1033000064460B9B01910693082305935B46049347
:103310001023039300232A0002930096099B089927
:103320000A98FFF759F84346050001340B93C8E6A5
:10333000913000107C41002074B80310B8B803101D
:1033400004B90310782E00D1C5E1582E00D12FE228
:103350006F2E00D131E3622E00D126E210233A0015
:103360009A430C92692E01D000F01EFC0A230E93A2
:103370007B0500D5B7E180270C9BBF001F4000D024
:10338000B8E21A0080235B001A40914600D06EE339
:103390000C9B5B0601D500F0F1FB0C9B0B9A1B0606
:1033A00000D4C1E30021535E0432D90F14910B9273
:1033B000DA179F185740002B09D10C9910330A00D7
:1033C0009A4313000A000C93520500D5DEE30C9AD1
:1033D0006123920600D54123DBB218AE0A3B169456
:1033E0000F934C461595B1460E9E0EE03033DBB27E
:1033F0004A4638001355310000F07EFC071E00D10C
:10340000FDE12C00202D00D1F9E13100380000F061
:1034100073FC651CCBB20929E8D90F9A9446634422
:10342000DBB2E5E7462E00D1B4E107220B9B0497FF
:1034300007339343013294469C4462460B924246C2
:1034400003925A4602921A685B68089900920193A7
:103450000A982A00099BFFF7C9F80134050030E6F5
:103460006E1C2A00099B0A9D08992520A847013453
:10347000350026E6BB0700D5D2E04346012B00D835
:1034800088E3099B6F1E474498462A00A1460A9D7F
:10349000089C561C434621002020A8473200BE420B
:1034A000F7D14C460B9B32001F1D1878751C099BE9
:1034B00008990A9EB04701340B9702E600233200B8
:1034C0009E00F61801347600B618227833001100F9
:1034D0003039303B0929F3D99846002316009B4622
:1034E0002E2E00D03EE680236678DB001F4333009B
:1034F000303B621C092B11D8140033005A46960049
:10350000B61801347600F6182378320019003039E5
:10351000303A0929F3D91E00934623E62A2E00D11A
:1035200081E114001EE6202332009A43472A04D189
:1035300080231B011F4302239E43452E01D12023DC
:103540001F4307220B9B07339343013294469C444D
:1035500062460B921A685B68100019000C900D917E
:1035600000F0A1FE002800D08CE00C980D990122FB
:10357000CA4B524200F092FE002800D082E00C9824
:103580000D990122C64B524200F072FE002879D1FB
:10359000434603935B460497029308990C9A0D9B4C
:1035A0000A98009201932A00099BFFF781FB0134DE
:1035B000050086E50C990B000133884500D8EBE245
:1035C00043462A005F190C94089D0A9C7F1A561CDA
:1035D000099B29002020A0473200BE42F7D1434674
:1035E000350001330C9C0C930B9B1878002800D1FC
:1035F00062E64B46002B00D02EE62A000B9BA3462A
:103600005F1BB9460A9E089C099F3B002100551C80
:10361000B0474B46585D2A000028F6D15C4633E699
:103620000B9B08991A1D18789146099B2A000A9F3E
:10363000B84743466E1C4544012B00D8AEE2A34672
:103640003200A846089C099E0A9D571C33002100A1
:103650002020A8473A004745F7D15C464B463D003D
:103660000B9301342DE501235B42D0E51022390094
:103670009143113211430B917A0500D42AE60021BF
:1036800018AE3EE6434603935B46049702930899BF
:103690000C9A0D9B0A98009201932A00099BFEF751
:1036A000A5FF013405000CE50B990B0009680433F4
:1036B0008846002900DAB0E056780B93541C4CE59C
:1036C000C0239B00A6781F43023469E5C023A67877
:1036D0001F43023464E510230E930C233A009A43EF
:1036E0000C927B0502D501239A430C92692E00D1DE
:1036F00041E6642E00D13EE680270C9BBF001F40B0
:1037000000D09EE01A0080235B001A40914600D052
:1037100070E10C9B5B0600D51FE20C9B1B0600D4DE
:1037200008E20B9B1F8804330B93002F09D10C99DF
:1037300010230A009A4313000A000C93520500D587
:10374000D4E00C9A6123920600D54123DBB218AE77
:103750000A3B15940F934C461495B1460E9E0CE00F
:103760003033DBB24A4638001355310000F0C4FA5A
:10377000071E2BD02C00202D28D03100380000F05F
:10378000BBFA651CCBB20929EAD90F9A9446634467
:10379000DBB2E7E720231F4347E65B460C93022397
:1037A0003B400F9300D051E504E702230E9394E7CA
:1037B0000C233A009A4314331A4310230C920E93AD
:1037C0007B0590D498E7374B0A9374E44E462A0061
:1037D000159C149D0C9B0693434605935B460493EE
:1037E0000E9B03930023029301922A000096099BEB
:1037F00008990A98FEF7F0FD0134050061E44E4691
:103800002A00169C159D0C9B0693434605935B4628
:1038100004930E9B0393149BE5E702210F4341465B
:103820004942884648E70B9AA678136802349B46BB
:10383000DB435946DB171940130004338B460B93C7
:1038400090E407220B9B07339343013294469C4438
:1038500062460B921A685F68130091463B4308D199
:103860000C9910330A009A4313000A000C93520576
:103870003CD40C9A6123920600D577E1DBB20A3B77
:103880000F934346002216930E9B18AE1495159481
:1038900015004C469846B14619E0C046FFFFEF7F41
:1038A000FFFFEFFF992300103032D2B24B462000C9
:1038B0005A5539004246002300F060FA0F00040018
:1038C000014300D18FE03500202E00D18BE042462D
:1038D00000232000390000F051FAD2B26E1C092AF0
:1038E000E2D90F9B9C466244D2B2DFE7002318AEB8
:1038F0001A006FE707220B9B07339343013294466C
:103900009C4462460B921A685B68D9171291139116
:10391000129813990600564010960E005E401196BC
:10392000109E119F361A8F41D90F1096119717913B
:103930001A430BD10C9910230A009A4313000A0072
:103940000C93520502D5002718AE41E00C9A612372
:10395000920600D50CE1DBB20A3B0F934346169367
:103960000E9B18AE0022984633001495159416004D
:10397000109C119D994611E03032D2B24B46200086
:103980009A5529000023424600F0F8F9030004008C
:103990000D000B4314D03E00202F11D042460023CF
:1039A0002000290000F0EAF9D2B2771C092AE3D9F5
:1039B0000F9B9C466244D2B2E0E708230E938CE64C
:1039C0004E46169B109411959846159C149D0C9B81
:1039D0000693434605935B4604930E9B019703931E
:1039E000179B029301E7169B3200149D159C984685
:1039F0004E46EFE60B9B1A1D1B6815929946002B4D
:103A00000CD10C9910330A009A4313000A000C934E
:103A1000520503D5002318AE1A006DE00C9A6123FD
:103A2000920600D5A6E0DBB218AE0A3B14940B93C5
:103A30004C460F95B1460E9E0CE03033DBB24A4641
:103A40002000D355310000F057F9041E50D02F004C
:103A5000202D4DD03100200000F04EF97D1CCBB25E
:103A60000929EAD90B9A94466344DBB2E7E70B9B3A
:103A70001A1D1B681592D9175A184A409146DA0F39
:103A80001692002B0CD10C9910330A009A431300A4
:103A90000A000C93520503D5002318AE1A0052E019
:103AA0000C9A6123920667D4DBB218AE0A3B1494D9
:103AB0000B934C460F95B1460E9E0CE03033DBB2B3
:103AC0004A462000D355310000F016F9041E36D0C6
:103AD0002F00202D33D03100200000F00DF97D1C87
:103AE000CBB20929EAD90B9A94466344DBB2E7E7E3
:103AF0004E462A00149C0F9D0C9B0693434605934B
:103B00005B4604930E9B0393002302930192099B4F
:103B10002A00009608990A98FEF75EFC159B05009E
:103B20000B930134FFF7CDFA13680432D90F1491C7
:103B30000B923DE40B9B1F6804330B93F5E54E4657
:103B40002A00149C0F9D0C9B0693434605935B46ED
:103B500004930E9B0393169BD7E70B9B1F780433AC
:103B60000B93E2E500230C93FFF762FB412385E60C
:103B70004123F0E6412356E7412395E70B9A13785A
:103B800004320B9200221492FFF712FC002318AEAD
:103B90001A0038E62E0085E40C9327E54B463500E5
:103BA0000B930134FFF78DFA063B17000E93642E3A
:103BB00000D092E5530500D595E5FFF7DCFBC04644
:103BC0000EB400B584B005AA08CA010003920092A1
:103BD000012204485242FFF75BFA04B008BC03B06C
:103BE0001847C0469123001000B583B0009313001E
:103BF0000A0001000248FFF74BFA03B000BDC046BF
:103C00009123001010B5094A84B01468002C09D023
:103C1000012200910300524203A90548A047012058
:103C200004B010BD01F03CF80020F9E77C41002011
:103C30009D23001001480421014B18474015002026
:103C4000653C0010142310B50100188804331B884C
:103C5000984710BD162310B50100188802331B8841
:103C6000984710BDF8B54746CE4680B50F1E19D00F
:103C700014239946043304000025012698464B4638
:103C80001888434621681B88984701C4431E984101
:103C9000013540420640AF42F1D130000CBC9046A5
:103CA0009946F8BD0126F8E7124A936F9B0815D292
:103CB0009066D166002905D0FFE7FFE7FFE7516F67
:103CC000106F704704B580210906C21751400028C3
:103CD00000D0C84337F0E0FC002104BDF0B5146EFD
:103CE000556E576F166FFFF7E3FF146655665767FB
:103CF0001667F0BD000000D0114A936F9B0813D2E5
:103D000010665166002905D0FFE7FFE7FFE7516F16
:103D1000106F704704B5002801D00020C04337F071
:103D2000BBFC002104BDC046F0B5146E556E576F44
:103D3000166FFFF7E5FF1466556657671667F0BD07
:103D4000000000D094464E4A926F9208624601D21B
:103D500030E0C046F0B54A4EB56F6D08FCD3346E06
:103D6000756E776F366F00F025F89446444A1466F6
:103D70005566576716676246F0BDC0469446404A8E
:103D8000926F9208624601D258E0C046F0B53C4EB0
:103D9000B56F6D08FCD3346E756E776F366F00F0BB
:103DA0004DF89446364A146655665767166762465C
:103DB000F0BDC046002B24DB11D000293EDA00B54F
:103DC000C943404200D1013100F038F8C9434042B4
:103DD00000D10131DB43524200D1013300BD002A42
:103DE000EBD1002801D1002905D00020C90FC90757
:103DF00001D1C043410800B537F016FC0022002372
:103E000000BD00B500290ADBDB43524200D101337B
:103E100000F014F8C943404200D1013100BDC9434C
:103E2000404200D10131DB43524200D1013300F066
:103E300005F8DB43524200D1013300BD002923D1F4
:103E4000002B18D1002A0CD0BC460D4F38667A667C
:103E500000210023FFE7FFE7FFE77A6F386F67462F
:103E60007047002801D00748010000B537F0DCFB9F
:103E70000022002300BD02000B000020002170473B
:103E8000000000D0FFFFFFFF002B00D0BDE0130CAF
:103E900026D1002AE7D080B4104F39667A66FFE752
:103EA000FFE730B4040C7B6F396F1B0423433B6680
:103EB000FFE7FFE7FFE7C04684B27B6F3D6F1B045F
:103EC00023433B66FFE7FFE7C04600232C042D0C8D
:103ED0007A6F386F00196941B0BC7047000000D09C
:103EE000F0B594460025140E01D112020835140FC6
:103EF00001D112010435940F01D192000235D40F83
:103F000001D152000135D40B0134254F7C66254C7C
:103F10003C660E0C93B2FFE7FFE7FFE73C6F66439A
:103F2000360C7703BE467343DF0B5B04C01AB941FE
:103F3000130C7343DB18C91ACE086643360CB6441B
:103F400093B273431F0F1B01C01AB941130C734383
:103F50001F0B1B05C01AB941860D8F023E436643F5
:103F6000360C092D24DB520A7243801A7703460A65
:103F70006643360C16235B1BDE40DF40BF196446E8
:103F80006643821B7046043506330100D940A840C1
:103F9000C01900D30131A24206D20023F0BD0000B7
:103FA000000000D0FFFFFFFF121B0130F3D3F1E749
:103FB00009277F1BFE406446A2B27243801A00D2DA
:103FC0000139220C7243130C1204821A99410B001E
:103FD0007046043513370100F940A840801900D31A
:103FE0000131002B02D1A2420AD2F0BD013000D330
:103FF0000131121BFAD2013BF8D1A24200D2F0BD2E
:10400000013000D30131121BF7E7F0B51C0C00D0D2
:1040100080E00CB400251C0A04D11B02160E3343A9
:10402000120208351C0B04D11B01160F3343120179
:1040300004359C0B04D19B00960F3343920002354C
:10404000DC0B02D192185B4101351C0097186441CA
:104050000134464F7C66464C3C660E0CFFE7FFE79A
:10406000FFE7C0463C6F6643360C7703BE4697B207
:104070007743C01B00D20139C01B00D201399FB267
:104080007743C91BC91B170C77437E04FF0B801BAA
:10409000B941CE086643360C0C2D33DBB644120B07
:1040A0001F053A431B0B97B27743C01B00D201395F
:1040B0009FB27743C91B170C77433E043F0C801B0C
:1040C000B941860D8F023E43664329277F1BFE4080
:1040D0000C3D7746AF40BF1930BCA2B2ABB27243C1
:1040E0007343801A9941220C7243130C1204801AF4
:1040F000994102000B000137001BA941F9D2781E3B
:104100000021F0BD0C277F1BFE4077467F0BAF40A0
:10411000FF19E0E700245D1C07D0144F7D66396667
:10412000FFE7FFE7FFE7FFE73C6F95B29EB265430D
:104130006643401BB141150C1E0C654366433604B3
:104140002F0C3E432D04401BB141994204D2020082
:104150000B0020000021F0BD01D19042F7D3801A5E
:10416000994101349942F2D3F6E70000000000D0F3
:10417000FFFFFFFF48404140484018B41B4B5B68BD
:10418000FC46019308BD04DFF343001018B4174B3D
:104190001B68FC46019308BD00DFFD4300109446F8
:1041A000134A926F920809D2624618B40F4BDB682B
:1041B000FC46019308BD0CDFB54600100C4AF0B573
:1041C000146E556E576F166F6246FFF7EEFF084A82
:1041D0001466556657671667F0BD18B4034B9B68A5
:1041E000FC46019308BD08DF59450010D44100206A
:1041F000000000D0FFB550404240504059404B4075
:10420000594000E0FFB5154F4C00640D03D0BC428F
:1042100004D10C0314D80020090D09055C00640DBD
:1042200003D0BC4204D11C030AD800221B0D1B057D
:1042300001264B4009D44B4003D58B4200D182422A
:10424000FFBD9942FCD19042FFBD0B43DB180343F5
:104250001343F5D0C9434918FFBD0000FF07000014
:1042600000B5FFF7CFFF01D0002000BD012000BD49
:1042700000B5FFF7C7FF804100BDC04600B5FFF79E
:10428000C1FF01D9002000BD012000BD00B5FFF72E
:10429000B1FF01D9002000BD012000BD00B5FFF72E
:1042A000A9FF804100BD012040054A00121804D832
:1042B0005A00121801D800207047012070470020D2
:1042C000704700000021002805D17047C117484001
:1042D000401AFAD0C90713B5064B1B6898470CBCA7
:1042E000441CA2401005120B0349091B0905194380
:1042F000114310BDD44300201F04000010B54C0032
:10430000620D8023D218DB00D21A5B057E2A10DDF5
:104310009E3A13DACC170903490819435242D14097
:10432000640001341532202A05DAD0400843604386
:1043300010BD002010BD0846604310BDC80FC01856
:10434000013810BD18B4044B5B6AFC46019308BDEC
:1043500024DFE14800100000D441002018B4044BD1
:10436000DB6FFC46019308BD7CDF5D490010000057
:10437000D4410020132370B51C78012C10D00BDD24
:104380000C48FFF767FC0C4D01008022280000F06C
:104390000FFC022C01D070BD074D084AAA64FAE751
:1043A000054D064A29002B00803104C38B42FCD105
:1043B000AA64F0E753440000D4410020C143001038
:1043C00007B5604601880A0A0230DF2AFAD1C9B26D
:1043D000820804D3028840880004104300E000688B
:1043E000014A5050039007BDD44100200FB403BCD4
:1043F0000CBCF0B50124E407634000E0F0B50C0DFF
:10440000CF0F661E3605891B640503D3C94340429E
:1044100000D30131640D03D0661CF60A07D0E41BFB
:1044200000207F00791C89078912803C24031D0D20
:10443000DF0F6E1E36059B1B6D0503D3DB43524217
:1044400000D301336D0D03D06E1CF60A07D0ED1BAF
:1044500000227F007B1C9B079B12803D2D032F1B9E
:10446000661B58D4A446202E46DA20371400BC40E0
:104470001D00BD40F24033412A4380185941CB0F03
:1044800005D0C943C04300226442504151416246B5
:104490004D0D28D10D0D07D100281FD02419404102
:1044A0004941013A0D0DF9D0640006D3013000D323
:1044B0000131002C01D140084000013A0BD4941C7A
:1044C000E40A04D112051144DB071944F0BDD907F1
:1044D000204B194300E0D9070020F0BD0029DDD1B1
:1044E000002CDBD1F0BD0132C6074008CD072843C0
:1044F0004908002EE1D0D9E73C2E29DA203E40378A
:104500001400BC4000D00124F24014431A00BB4008
:104510001C43D317ACE7AC46202F08DA2036040042
:10452000B4400D00B540F84039412843A5E73C2F81
:104530000CDA203F40360400B44000D00124F8409B
:1045400004430800B1400C43C117EAE7100019000A
:10455000002494E70000F07FF0B50C0D661E3605D0
:10456000891BE60A6405640D02D0651CED0A04D0BF
:10457000002001210905803C2403A4461C0D671E70
:104580003F05DB1BE70A6405640D02D0651CED0ADC
:1045900004D0002201231B05803C2403774064449F
:1045A00097B484B296B27443070C7E43150C6F43E4
:1045B00080B26843361802D3012000043F1830044B
:1045C000350C00197D41844688B29AB250430C0CD8
:1045D00062431F0C7C438EB27E43921902D30126A4
:1045E0003604A4191604170C3618674101BC81B2B1
:1045F0009AB25143040C62431B0C5C4380B2584393
:10460000121802D30120000424181004130C4018BF
:1046100063412D185E410020474106BC88B293B229
:1046200058430C0C6343120C544389B251435B183A
:1046300002D301210904641819041A0C09186241F3
:104640006D1856410020474118BCF902720D114304
:10465000F0026A0D1043ED020A0D03D16D194041BD
:104660004941013B124E9B1B7600B3420ED26D00B6
:1046700007D30130002671416646354301D1400819
:1046800040001B05C918E4072144F0BD0BDA0133D3
:1046900006D1013004D101314F0D01D04908F2E7B4
:1046A000E1070020F0BD013631050020EBE70000F6
:1046B000FF030000F0B51C0D671E3F05DB1BE70A7A
:1046C0006405640D02D0661CF60A04D000220123A2
:1046D0001B05803C2403D0252D060026F6432E66BC
:1046E0001E096E66CE0FF619B44649004F0D02D072
:1046F0007E1CF60A03D000200021403F3F033E1BF2
:10470000B600B444013F7F05C91B49082E6F01362E
:1047100076089C02950D25437543ED137543AD1343
:1047200001356D10F603761B0CB4CC02450D2C43FD
:10473000A2B2B3B25A43270C7B43350C6F43A4B2E9
:104740006C431B1902D3012424043F191C041D0CC3
:10475000A4187D4124196D41009A91B2ACB2614315
:10476000170C7C432B0C5F4392B25A43A41802D31C
:1047700001221204BF182204230C52187B41019C11
:104780006C431B19520ED9010A434401A01A81B28D
:10479000B2B2514303145A43360C734387B2774382
:1047A000D617D21900277E4136049B191704160C20
:1047B0007F185E417316ED18F301002680337541B2
:1047C000A90F06D16400690AE8055B0A184309D2FB
:1047D0002FE00422944480337541A90AA8059B0A5E
:1047E000184326D3404149412404009A019B0D00FF
:1047F0005543641B4343E41A95B286B27543170CC4
:104800007E43030C5F4392B25A43B61802D301228F
:104810001204BF183204330C52197B4152429C419E
:10482000002C02D40022013051414008CA07104335
:10483000490802B06246D7079210084BD218084BBD
:104840009A4203D212058918C919F0BD0020002A26
:1048500001DC3900F0BD01331905F5E7FD03000067
:10486000FE070000624618CA944600291ADAC018EA
:1048700061415B463B415C46B4405246FA402243AC
:1048800044464D4662416B41904699462B46B340A3
:104890003D41FC401C4352465B46A241AB4192461F
:1048A0009B467047C01AA1414B463B414C46B44021
:1048B0004246FA40224354465D4662416B4192466D
:1048C0009B462B46B3403D41FC401C4342464B4671
:1048D000A241AB41904699467047002000217047A5
:1048E000002200B5203200F004F8080000BD0000EE
:1048F00000220B15F1D410B5944600F05DF81414A5
:10490000013400DA0021CB17134C20476244343ABB
:104910000CD40C2A07DA0400914090405242203215
:10492000D440214310BDD843D94310BD203207D411
:104930000C469440524220321141D040204310BDD9
:104940000800C917203203D452422032104110BD52
:104950001800190010BD00000D4900104A00520D4A
:10496000144BD21A13DDFF2A1EDAD205CB0FDB0758
:104970001A43C300400F0903490A084310435B0070
:1049800001D301D0013070474308FBD2704702D0F9
:10499000C80FC00770470A0312130132F8D1420F43
:1049A000072AF5D1012200E0FF22C80F000280187B
:1049B000C0057047800300000A0DCC0F531E1B0575
:1049C000C91A520503D3C943404200D30131520DE5
:1049D00003D0531CDB0A07D0121B00206400611CAB
:1049E00089078912803A1203014BD21A70470000DE
:1049F000FF03000051434343C9188C46110C83B296
:104A00004B4310B4040C614392B280B250436243F2
:104A10001C041B0C001910BC59411304120CC018C3
:104A2000514161447047000007B54840414048404B
:104A300001E0C04607B54200120E03D0FF2A03D1A1
:104A4000420218D8C00DC0054A00120E03D0FF2A3A
:104A500003D14A020FD8C90DC9050122414005D42E
:104A6000414001D5814207BD884207BD0143491835
:104A700001D0C043001807BD00B5FFF7DBFF804140
:104A800000BDC04600B5FFF7CFFF804100BD00006C
:104A9000034BDB6FFC4618477CDF394B00100000EE
:104AA000D4420020132310B51C781348FFF7D2F826
:104AB000012C0BD004DD01008022104800F078F8B2
:104AC0000F48FFF7BFF80F4B186010BD0B4C0100EB
:104AD0005422200000F06CF80B4B6365A365E3657E
:104AE00023666366A366E36623676367A367E3677A
:104AF0002362E361E4E7C04653460000D44200204D
:104B00004C330000D44300200D4B001007B5604625
:104B100001880A0A0230DF2AFAD1C9B2820804D316
:104B2000028840880004104300E00068014A5050A9
:104B3000039007BDD4420020C30FDB0741000A0EDB
:104B400007D0FF2A08D00909054A891819434007E8
:104B500070471900002070470249C918FAE70000A1
:104B6000000000380000F07F10B504002AF08AFD34
:104B7000002804D0034B04199C4200D810BD024801
:104B8000FDF734F800000420C0BA031010B52AF075
:104B900083FD10BD01480421014B1847501500202A
:104BA000653C0010014B1B681847000050150020A1
:104BB000014B5B68184700005015002010B5FFF747
:104BC000D3FF10BD10B5FFF7CFFF10BD10B5FFF735
:104BD000DDFF10BD10B5FFF7D9FF10BD10B5FFF711
:104BE000D5FF10BDF8B54746CE4680B5437C80461C
:104BF0000E001700002B48D0002A2EDD274B012580
:104C000000240020994604E02B00013401359F4226
:104C100019DD002C3ED0631EF35C0D3B5942594117
:104C2000CBB2325D0A2AEFD1002BEDD1844226DCD3
:104C3000434648461B6802219847013428002B0050
:104C400001359F42E5DCB8420BDBF619013E3378B3
:104C50000D3B59425941434619740CBC9046994644
:104C6000F8BD4346391A3018F6191B68013E9847BB
:104C700033780D3B5942594143461974EDE7434699
:104C8000211A1B6830189847D2E7036811003000DA
:104C90009847E2E743461B7CC3E7C04630BB03109E
:104CA000F0B5DE464E4657464546E0B583B00700B0
:104CB0002CF0C2FAD02301AE1B06804631003548E5
:104CC0001C6836F0F9FC8146002808D1019B64B2CB
:104CD0009C4204D02F4836F027FD012399464346D5
:104CE000C346013351D02C4B1C689A46002C40D04F
:104CF0002A4D02E0E468002C20D02368002BF9D074
:104D00002B68002B01D0A342F4D15A463900200071
:104D1000FFF768FF0A233370637C002B30D0237CBD
:104D2000002B21D102211E482368984733780D3B80
:104D3000594259412174E468002CDED14B46002BC6
:104D40001AD153461C68002C06D06368002B00D093
:104D50009847E468002CF8D1404603B03CBC90462C
:104D60009946A246AB46F0BD012130002368984722
:104D7000DCE74B46002BEFD0064836F04DFCE0E771
:104D80000121300023689847B4E738002CF054FA2A
:104D90008346A8E74C1F0020703D0020743D002092
:104DA00030BB0310F0B54646DE465746C0B59046C8
:104DB00082B00E00002830D1194B1A4D1A685B687A
:104DC000194F9A46194B01929B465B461C68002C72
:104DD00005D115E0A34205D0E468002C10D02B6863
:104DE000002BF7D1A368002BF6D04146300098473E
:104DF0000028F1DD02B01CBC90469A46A346F0BDE7
:104E000001200021FCF754FA7B6A9A45DDD8BA6A82
:104E100001998A4201D29A45D7D001204042E9E760
:104E200028B80310743D002000400540703D00206C
:104E3000F0B54646D6464F46C0B5884682B0160005
:104E4000012840D1D0231B061C68204B01A9180063
:104E50009A4636F031FC071E07D1019B64B29C4292
:104E600003D0504636F060FC0137B146731C25D0A4
:104E7000174B1C68002C14D0164D02E0E468002C7F
:104E80000FD02368002BF9D02B68002B01D0A34250
:104E9000F4D120004A464146FFF7A4FEE468002C06
:104EA000EFD1002F06D1300002B01CBC90469946CD
:104EB000A246F0BD504636F0AFFBF4E740462CF07A
:104EC000BBF98146D4E701267642ECE74C1F00206F
:104ED000703D0020743D00200D4B1A68002A12D04E
:104EE000824203D109E0984207D01A00D368002B10
:104EF000F9D1002900D0D06070470029FCD1C368E7
:104F0000D360C160F8E70029F6D01860F4E7C04626
:104F1000703D002010B500F035F910BD7047C04657
:104F20000022014B1A707047D241002001207047C7
:104F30004B790020FF2B00D070478B79002BFBD1E1
:104F4000CB79012BF8D1082AF6D98A78014B0930A0
:104F50001A70F1E7D241002070B5002915D115492A
:104F60005379107909781B0203430020994200D03D
:104F700070BD5378012B0AD0022BF9D10020642296
:104F80000021FDF7A9F90120F2E70120F0E7D4782C
:104F9000917824020C430500E20502D5620A934091
:104FA0001D000548FEF74EFE7F210300214028002A
:104FB0009847C046D24100205542000001230370AB
:104FC0000048704734BB03104A780B7812021A432A
:104FD0008B7810B51B041A43CB781B06134396221B
:104FE000D200934200D010BD0348FEF72BFE0021F3
:104FF000030008009847C0465542000070B5184CA1
:1050000082B005000E00200001A936F055FB0028F3
:1050100008D1D0231B061B68019A93421CD02000A4
:1050200036F082FB002001F031FD002807D1032576
:105030006D42200036F0F0FA280002B070BD00206A
:1050400001F03CFD0028F2D029003200002001F0E0
:1050500043FD051EEBD0ECE703256D42ECE7C046AF
:10506000A441002010B51F20FCF754FFFA200021B6
:10507000800010BD10B5064C0021200036F01CFB4E
:10508000002804D000F084FD200036F0C5FA10BDE1
:10509000A4410020F0B54F464646D646C0B5364B33
:1050A00082B007000E00180001A9994636F004FBF3
:1050B000002808D1D0231B061B68019A934241D0D7
:1050C000484636F031FB002001F0E0FC002831D0EA
:1050D0000024002E33DD294B9A46984612E0002822
:1050E00047D100F055FD002001F076FD002001F0D1
:1050F000CDFC002823D0002001F0AAFD002827D0F5
:10510000A6421CDD0020351B01F0A2FD8542E6DC35
:1051100039192A00002001F017FD050000F038FDC4
:10512000002001F059FDFCF7B7F8434664191860F8
:105130005960E5E700200021104B1860596048468F
:1051400036F06AFA02B01CBC90469946A246F0BD01
:10515000FCF7A2F853460D001A685B6800218446EC
:10516000074812184B419D42E9D8C9D19445C7D987
:10517000E5E70500CCE7C046A441002090200020D0
:1051800020A1070010B51D4B84B01B7801F072FF01
:105190001B491F20FCF7CEFE01211F20FCF7A8FEB3
:1051A0001848FCF79BF9FBF755FD0400FCF774F871
:1051B000FA220023920012184B41994218D9012279
:1051C0005242D31701210291002101910E49200082
:1051D0000091FBF743FD0400631E9C41E4B20028EC
:1051E00003D001210948FFF777FE200004B010BD6D
:1051F0009942E7D19042E2D8E4E7C0464055041016
:1052000075500010A441002065500010601500206A
:1052100000487047ECBB03100048704798BB031070
:1052200010B5040017480378002B1BD0002C06D1C2
:10523000154B16484380063BFF3B038010BD052CF1
:105240001DD8134BA400E45800231048821CE15CD5
:1052500000290BD0013311800232132BF7D1CA235E
:105260009B00EAE7112102F051F9DFE7FF2213402A
:1052700001335A00C0239B0013439BB2DDE700209B
:10528000DCE7C046BC41002009040000483D002086
:1052900000BC0310F0B54546DE4657464E469823FF
:1052A0008024E0B5464A6402D35885B0984623422C
:1052B00032D0012123200022424B1954D9702F31C2
:1052C0005A541A7440490132002001F02BF980220F
:1052D0003E4B92021A653E4B03934346DB0621D4B4
:1052E000802342469B011A4208D01C43344B1B6D5D
:1052F000DB035AD58022354B52021A658023424681
:105300005B011A4244D1444555D105B03CBC90469E
:105310009946A246AB46F0BD1023039343460024B2
:10532000DB06DDD5264B9F6D002F23D09A46274BF9
:10533000002601259B4603E06D000136202E19D082
:105340003D42F9D05346DB6D5B4601229D657308F3
:105350005C001C4B91469C46B243A4186401644413
:10536000200000F063FA002806D1AF4301366D003B
:10537000002FE3D1039CB3E74B46A28AA17800201B
:105380000093002301F0FCF8200000F0DDF9ECE7C9
:1053900000210B4A0020116001221C4301F098F803
:1053A00080220A4B12031A65ADE701220221002078
:1053B00001F01AF89EE7414606486140FCF716FCEA
:1053C000000011507C3D00200000105000301150B2
:1053D0001000010040BC031010B501210520FCF7AE
:1053E00087FD10BD01222321002310B50648425439
:1053F000C2702F3283540374002220300133002105
:1054000000F0A0FA10BDC0467C3D00208022024B77
:105410005202DA647047C04600201150F8B505000A
:1054200000F06AF91B490520FCF784FD80221A4C24
:10543000D20000212000FFF7B5FB184B184A40208E
:105440001A60012300228027222616496370E37028
:10545000A083A1600A60A0870238A7552254124990
:105460001248013EA2550236A3556260E1602370E6
:10547000A062026062622032A3540D4AE1621364AA
:1054800080239B05D36490230A492800D150FFF75D
:10549000BDFFF8BD955200107C3D002084410020E6
:1054A00080011050840010500001105080001050F6
:1054B00000001150103001000B785B0602D14B78D0
:1054C000052B09D0012123200022054BD970195446
:1054D0002F311A745A5470478A78024B1A60F1E7D8
:1054E0007C3D002000001150F0B54F464646D646A0
:1054F000C0B507208B784A799C46CC780B79104050
:10550000A4070002A40F1843E3B29A4662467F2321
:1055100082B0134069466246CA71CA79674652B280
:105520009046D60F59003D4D8A195201AA1897701E
:105530004746FF43FF0F57705F425F41D7705246A7
:10554000012A3DD040283ED88A195201AA189083DA
:1055500094774246002A21DB314CDA00A4469C01B4
:1055600062442C19A26000241460002B21D02D4A23
:10557000DB00944663448A195201AC186360AA5C4C
:10558000A046002A23D0012201208B195B01EA5496
:1055900002B01CBC90469946A246F0BD224CDA00EF
:1055A000A4469C0162442C19A26200241460002BC2
:1055B00028D100227301EB185A601C4ADA60E2E736
:1055C0001B4A9042C0D901001A48FCF70FFB1A4A47
:1055D000146894464246D460021C402817D83F20E5
:1055E00092B2A218024201D0824340326046026069
:1055F000124A6240A02424061443524697062743C9
:105600001F60C0E70D4ADB0094466344B3E74022C5
:105610003F2092B2A2180242E6D1E7E77C3D00208B
:1056200084001050040010508000105000011050F1
:10563000FF03000018BC031084410020000010503C
:105640007F2010B5140008404000C9091A00401816
:10565000044B400118182100012300F073F90120C8
:1056600010BDC0467C3D00207F2270B514000C4068
:10567000CE0964000B4DA0194001281883781A4206
:1056800005D15BB2DB43084ADB0F0133936680220E
:105690000649120100F060F80123A41964012C19D5
:1056A000237470BD7C3D002000201150FFF7FFFFE8
:1056B0007F2270B514000C40CE0964000B4DA01978
:1056C0004001281883781A4205D15BB2DB43084AAF
:1056D000DB0F013393660022064900F03DF80023FA
:1056E000A41964012C19237470BDC0467C3D0020B0
:1056F00000301150FFF7FFFF80220E4B520410B50F
:105700001A600D4B0D491A6010008B689843FBD14D
:105710000B4C9C2200212000FFF744FA802200213C
:1057200052010848FFF73EFA092363670333A36772
:1057300010BDC04600E0004000F0004000C0004046
:105740000000115000001050002303744374438282
:105750008382C3828361704710B58368002901D0BA
:105760001C682140002A11D08024E4001143224209
:105770000CD01A6822420BD10A4A0A401A60FFE78D
:10578000FFE7FFE7FFE7FFE7FFE78368196010BD6A
:105790007F2281780448CB091140044A9B009A5823
:1057A000FCF724FAFFFBFFFF54BC03107415002024
:1057B00070B543780400C58A002B1BD08022D2002C
:1057C0001543E3781A00511E8A4101214B40A1681C
:1057D000E3700B6852032A435B0517D4104B134048
:1057E0000B60FFE7FFE7FFE7FFE7FFE7FFE7A368DF
:1057F0001A6070BD8369818A9C462A006144C06832
:10580000FFF7D6F9842212021543DAE77F22A17846
:105810000448CB091140044A9B009A58FCF7E6F96A
:10582000FFFBFFFF54BC031074150020F8B5467C45
:105830000400002E00D169E0836840781D68AD0542
:10584000AD0D00283CD1A18A691889B2A182A58B2F
:10585000628A2B1C3F2D2BD99FB2BC46551AAFB282
:10586000BC4523D89DB2E3828A424CD349D000285C
:105870003CD08022D2001543E3781A00511E8A41A1
:1058800001214B40A168E3700B6852032A435B057A
:1058900043D4274B13400B60FFE7FFE7FFE7FFE729
:1058A000FFE7FFE70020A3681A60F8BD2B1CD9E7CB
:1058B00040239FB2BC46551AAFB2BC45D2D9F5E7DA
:1058C000A369A08A9C46E16860442A00FFF770F94A
:1058D000A18A6078691889B2A1820028B7D0E38ACA
:1058E000AB42B4D900236182E382DEE7A3692A00D8
:1058F0009C46E0686144FFF75BF98422120215437D
:10590000BAE73000D1E70B48FCF770F97F238178C4
:10591000094A19400948FCF769F97F22A17808482B
:10592000CB091140044A9B009A58FCF75FF9C04626
:10593000FFFBFFFFA0BC03107415002074BC031014
:1059400054BC031070B51D000400437C002D48D0EA
:10595000002B01D0002303740023A08BA38262825A
:10596000031C3F2838D998B2904224D89DB2E382D4
:10597000012363746378A161002B25D08022D200BB
:105980001543E3781A00511E8A4101214B40A1685A
:10599000E3700B6852032A435B0500D562E0364B87
:1059A00013400B60FFE7FFE7FFE7FFE7FFE7FFE7D5
:1059B000A3681A6070BD131C9DB2E3820123637457
:1059C0006378A161002BD9D12A00E068FFF7F0F8D5
:1059D000842212021543D4E7402398B29042C5D9DD
:1059E000E9E7002B37D083681A6843789205960D53
:1059F000002B18D1828AB21892B28282A08B618A5F
:105A0000031C3F280DD9881A9EB285B2AE4200D938
:105A1000031CE3828A421BD8CCD02000FFF7C8FECB
:105A2000C8E74023EFE7A369808A9C4632006044C0
:105A3000E168FFF7BDF8A38AF3189AB26378A282EF
:105A4000002BDBD0E38AB342D8D96282E582B1E78A
:105A50000A48FCF7CBF881787F331940084A094897
:105A6000FCF7C4F87F22A1780748CB091140044A0B
:105A70009B009A58FCF7BAF8FFFBFFFFA0BC03108D
:105A80007415002074BC031054BC0310024B5878EA
:105A9000431E9841C0B270478C3B0020024B1878DF
:105AA0004007C00F7047C0468C3B0020014B187860
:105AB0007047C046CE410020F8B54746CE462A4E34
:105AC00080B533788046002B04D001200CBC904672
:105AD0009946F8BD372200212448FFF763F8244C8B
